{
  "contractName": "GwaToken",
  "abi": [
    {
      "constant": true,
      "inputs": [],
      "name": "name",
      "outputs": [
        {
          "name": "",
          "type": "string"
        }
      ],
      "payable": false,
      "type": "function"
    },
    {
      "constant": false,
      "inputs": [
        {
          "name": "_spender",
          "type": "address"
        },
        {
          "name": "_value",
          "type": "uint256"
        }
      ],
      "name": "approve",
      "outputs": [
        {
          "name": "success",
          "type": "bool"
        }
      ],
      "payable": false,
      "type": "function"
    },
    {
      "constant": true,
      "inputs": [],
      "name": "isFunding",
      "outputs": [
        {
          "name": "",
          "type": "bool"
        }
      ],
      "payable": false,
      "type": "function"
    },
    {
      "constant": true,
      "inputs": [],
      "name": "totalSupply",
      "outputs": [
        {
          "name": "",
          "type": "uint256"
        }
      ],
      "payable": false,
      "type": "function"
    },
    {
      "constant": false,
      "inputs": [
        {
          "name": "_from",
          "type": "address"
        },
        {
          "name": "_to",
          "type": "address"
        },
        {
          "name": "_value",
          "type": "uint256"
        }
      ],
      "name": "transferFrom",
      "outputs": [
        {
          "name": "success",
          "type": "bool"
        }
      ],
      "payable": false,
      "type": "function"
    },
    {
      "constant": true,
      "inputs": [],
      "name": "tokenRaised",
      "outputs": [
        {
          "name": "",
          "type": "uint256"
        }
      ],
      "payable": false,
      "type": "function"
    },
    {
      "constant": true,
      "inputs": [],
      "name": "decimals",
      "outputs": [
        {
          "name": "",
          "type": "uint256"
        }
      ],
      "payable": false,
      "type": "function"
    },
    {
      "constant": true,
      "inputs": [],
      "name": "newContractAddr",
      "outputs": [
        {
          "name": "",
          "type": "address"
        }
      ],
      "payable": false,
      "type": "function"
    },
    {
      "constant": true,
      "inputs": [],
      "name": "tokenExchangeRate",
      "outputs": [
        {
          "name": "",
          "type": "uint256"
        }
      ],
      "payable": false,
      "type": "function"
    },
    {
      "constant": true,
      "inputs": [],
      "name": "destroyNum",
      "outputs": [
        {
          "name": "",
          "type": "uint256"
        }
      ],
      "payable": false,
      "type": "function"
    },
    {
      "constant": true,
      "inputs": [],
      "name": "version",
      "outputs": [
        {
          "name": "",
          "type": "string"
        }
      ],
      "payable": false,
      "type": "function"
    },
    {
      "constant": true,
      "inputs": [],
      "name": "tokenMigrated",
      "outputs": [
        {
          "name": "",
          "type": "uint256"
        }
      ],
      "payable": false,
      "type": "function"
    },
    {
      "constant": true,
      "inputs": [
        {
          "name": "_owner",
          "type": "address"
        }
      ],
      "name": "balanceOf",
      "outputs": [
        {
          "name": "balance",
          "type": "uint256"
        }
      ],
      "payable": false,
      "type": "function"
    },
    {
      "constant": true,
      "inputs": [],
      "name": "currentSupply",
      "outputs": [
        {
          "name": "",
          "type": "uint256"
        }
      ],
      "payable": false,
      "type": "function"
    },
    {
      "constant": true,
      "inputs": [],
      "name": "symbol",
      "outputs": [
        {
          "name": "",
          "type": "string"
        }
      ],
      "payable": false,
      "type": "function"
    },
    {
      "constant": true,
      "inputs": [],
      "name": "ethFundDeposit",
      "outputs": [
        {
          "name": "",
          "type": "address"
        }
      ],
      "payable": false,
      "type": "function"
    },
    {
      "constant": false,
      "inputs": [
        {
          "name": "_to",
          "type": "address"
        },
        {
          "name": "_value",
          "type": "uint256"
        }
      ],
      "name": "transfer",
      "outputs": [
        {
          "name": "success",
          "type": "bool"
        }
      ],
      "payable": false,
      "type": "function"
    },
    {
      "constant": true,
      "inputs": [],
      "name": "fundingStartBlock",
      "outputs": [
        {
          "name": "",
          "type": "uint256"
        }
      ],
      "payable": false,
      "type": "function"
    },
    {
      "constant": true,
      "inputs": [
        {
          "name": "_owner",
          "type": "address"
        },
        {
          "name": "_spender",
          "type": "address"
        }
      ],
      "name": "allowance",
      "outputs": [
        {
          "name": "remaining",
          "type": "uint256"
        }
      ],
      "payable": false,
      "type": "function"
    },
    {
      "constant": true,
      "inputs": [],
      "name": "fundingStopBlock",
      "outputs": [
        {
          "name": "",
          "type": "uint256"
        }
      ],
      "payable": false,
      "type": "function"
    },
    {
      "inputs": [
        {
          "name": "_ethFundDeposit",
          "type": "address"
        },
        {
          "name": "_currentSupply",
          "type": "uint256"
        }
      ],
      "payable": false,
      "type": "constructor"
    },
    {
      "payable": true,
      "type": "fallback"
    },
    {
      "anonymous": false,
      "inputs": [
        {
          "indexed": true,
          "name": "_to",
          "type": "address"
        },
        {
          "indexed": false,
          "name": "_value",
          "type": "uint256"
        }
      ],
      "name": "AllocateToken",
      "type": "event"
    },
    {
      "anonymous": false,
      "inputs": [
        {
          "indexed": true,
          "name": "_to",
          "type": "address"
        },
        {
          "indexed": false,
          "name": "_value",
          "type": "uint256"
        }
      ],
      "name": "IssueToken",
      "type": "event"
    },
    {
      "anonymous": false,
      "inputs": [
        {
          "indexed": false,
          "name": "_value",
          "type": "uint256"
        }
      ],
      "name": "IncreaseSupply",
      "type": "event"
    },
    {
      "anonymous": false,
      "inputs": [
        {
          "indexed": false,
          "name": "_value",
          "type": "uint256"
        }
      ],
      "name": "DecreaseSupply",
      "type": "event"
    },
    {
      "anonymous": false,
      "inputs": [
        {
          "indexed": true,
          "name": "_to",
          "type": "address"
        },
        {
          "indexed": false,
          "name": "_value",
          "type": "uint256"
        }
      ],
      "name": "Migrate",
      "type": "event"
    },
    {
      "anonymous": false,
      "inputs": [
        {
          "indexed": true,
          "name": "_from",
          "type": "address"
        },
        {
          "indexed": true,
          "name": "_to",
          "type": "address"
        },
        {
          "indexed": false,
          "name": "_value",
          "type": "uint256"
        }
      ],
      "name": "Transfer",
      "type": "event"
    },
    {
      "anonymous": false,
      "inputs": [
        {
          "indexed": true,
          "name": "_owner",
          "type": "address"
        },
        {
          "indexed": true,
          "name": "_spender",
          "type": "address"
        },
        {
          "indexed": false,
          "name": "_value",
          "type": "uint256"
        }
      ],
      "name": "Approval",
      "type": "event"
    },
    {
      "constant": false,
      "inputs": [
        {
          "name": "_tokenExchangeRate",
          "type": "uint256"
        }
      ],
      "name": "setTokenExchangeRate",
      "outputs": [],
      "payable": false,
      "type": "function"
    },
    {
      "constant": false,
      "inputs": [
        {
          "name": "_value",
          "type": "uint256"
        }
      ],
      "name": "increaseSupply",
      "outputs": [],
      "payable": false,
      "type": "function"
    },
    {
      "constant": false,
      "inputs": [
        {
          "name": "_value",
          "type": "uint256"
        }
      ],
      "name": "decreaseSupply",
      "outputs": [],
      "payable": false,
      "type": "function"
    },
    {
      "constant": false,
      "inputs": [
        {
          "name": "_fundingStartBlock",
          "type": "uint256"
        },
        {
          "name": "_fundingStopBlock",
          "type": "uint256"
        }
      ],
      "name": "startFunding",
      "outputs": [],
      "payable": false,
      "type": "function"
    },
    {
      "constant": false,
      "inputs": [],
      "name": "stopFunding",
      "outputs": [],
      "payable": false,
      "type": "function"
    },
    {
      "constant": false,
      "inputs": [
        {
          "name": "_newContractAddr",
          "type": "address"
        }
      ],
      "name": "setMigrateContract",
      "outputs": [],
      "payable": false,
      "type": "function"
    },
    {
      "constant": false,
      "inputs": [
        {
          "name": "_newFundDeposit",
          "type": "address"
        }
      ],
      "name": "changeOwner",
      "outputs": [],
      "payable": false,
      "type": "function"
    },
    {
      "constant": false,
      "inputs": [],
      "name": "migrate",
      "outputs": [],
      "payable": false,
      "type": "function"
    },
    {
      "constant": false,
      "inputs": [],
      "name": "transferETH",
      "outputs": [],
      "payable": false,
      "type": "function"
    },
    {
      "constant": false,
      "inputs": [
        {
          "name": "_addr",
          "type": "address"
        },
        {
          "name": "_eth",
          "type": "uint256"
        }
      ],
      "name": "allocateToken",
      "outputs": [],
      "payable": false,
      "type": "function"
    },
    {
      "constant": false,
      "inputs": [],
      "name": "pay",
      "outputs": [
        {
          "name": "success",
          "type": "bool"
        }
      ],
      "payable": true,
      "type": "function"
    },
    {
      "constant": false,
      "inputs": [],
      "name": "thisBalance",
      "outputs": [
        {
          "name": "",
          "type": "uint256"
        }
      ],
      "payable": false,
      "type": "function"
    },
    {
      "constant": false,
      "inputs": [
        {
          "name": "_from",
          "type": "address"
        },
        {
          "name": "_value",
          "type": "uint256"
        }
      ],
      "name": "destroyGwa",
      "outputs": [
        {
          "name": "success",
          "type": "bool"
        }
      ],
      "payable": false,
      "type": "function"
    },
    {
      "constant": false,
      "inputs": [],
      "name": "getDestroyNum",
      "outputs": [
        {
          "name": "",
          "type": "uint256"
        }
      ],
      "payable": false,
      "type": "function"
    }
  ],
  "bytecode": "0x60606040526040805190810160405280600381526020017f312e3000000000000000000000000000000000000000000000000000000000008152506003908051906020019062000051929190620001c6565b5060006009556000600a556000600b556105dc600c5534156200007357600080fd5b60405160408062002209833981016040528080519060200190919080519060200190919050505b81600460006101000a81548173ffffffffffffffffffffffffffffffffffffffff021916908373ffffffffffffffffffffffffffffffffffffffff1602179055506000600560146101000a81548160ff021916908315150217905550600060068190555060006007819055506200012581620001b56401000000000262001f28176401000000009004565b6008819055506200014e6305f5e100620001b56401000000000262001f28176401000000009004565b600081905550600054600160003373ffffffffffffffffffffffffffffffffffffffff1673ffffffffffffffffffffffffffffffffffffffff168152602001908152602001600020819055506000546008541115620001ac57600080fd5b5b505062000275565b60006012600a0a820290505b919050565b828054600181600116156101000203166002900490600052602060002090601f016020900481019282601f106200020957805160ff19168380011785556200023a565b828001600101855582156200023a579182015b82811115620002395782518255916020019190600101906200021c565b5b5090506200024991906200024d565b5090565b6200027291905b808211156200026e57600081600090555060010162000254565b5090565b90565b611f8480620002856000396000f300606060405236156101aa576000357c0100000000000000000000000000000000000000000000000000000000900463ffffffff16806306fdde03146102cb578063095ea7b31461035a5780630a9ffdb7146103b457806313b53153146103f657806318160ddd146104235780631b9265b81461044c57806323b872dd1461046e57806326a21575146104e757806327f3a72a14610510578063313ce5671461053957806332513ce5146105625780634172d080146105b75780634477c5da146105e05780634a36df25146105f55780634c8304331461062e57806354fd4d50146106575780636da390a1146106e65780636fe3a5671461074057806370a0823114610769578063771282f6146107b6578063775c46cd146107df5780638fd3ab801461080b57806395d89b411461082057806398e52f9a146108af578063a6f9dae1146108d2578063a81c3bdf1461090b578063a9059cbb14610960578063b921e163146109ba578063baaad0af146109dd578063cb7b867314610a06578063d648a64714610a29578063dd62ed3e14610a52578063e28d717b14610abe578063ff29507d14610ad3575b6102c95b6000600560149054906101000a900460ff1615156101cb57600080fd5b60003414156101d957600080fd5b6006544310156101e857600080fd5b6007544311156101f757600080fd5b61020334600c54610afc565b90506008546009548201111561021857600080fd5b61022460095482610b30565b60098190555080600160003373ffffffffffffffffffffffffffffffffffffffff1673ffffffffffffffffffffffffffffffffffffffff168152602001908152602001600020600082825401925050819055503373ffffffffffffffffffffffffffffffffffffffff167f7ba26a0f068612fb882b3272004674d21fed286c2c8c795cf653044690b32db4826040518082815260200191505060405180910390a25b50565b005b34156102d657600080fd5b6102de610b5b565b6040518080602001828103825283818151815260200191508051906020019080838360005b8381101561031f5780820151818401525b602081019050610303565b50505050905090810190601f16801561034c5780820380516001836020036101000a031916815260200191505b509250505060405180910390f35b341561036557600080fd5b61039a600480803573ffffffffffffffffffffffffffffffffffffffff16906020019091908035906020019091905050610b94565b604051808215151515815260200191505060405180910390f35b34156103bf57600080fd5b6103f4600480803573ffffffffffffffffffffffffffffffffffffffff16906020019091908035906020019091905050610c87565b005b341561040157600080fd5b610409610e0a565b604051808215151515815260200191505060405180910390f35b341561042e57600080fd5b610436610e1d565b6040518082815260200191505060405180910390f35b610454610e23565b604051808215151515815260200191505060405180910390f35b341561047957600080fd5b6104cd600480803573ffffffffffffffffffffffffffffffffffffffff1690602001909190803573ffffffffffffffffffffffffffffffffffffffff16906020019091908035906020019091905050610e5e565b604051808215151515815260200191505060405180910390f35b34156104f257600080fd5b6104fa6110df565b6040518082815260200191505060405180910390f35b341561051b57600080fd5b6105236110e5565b6040518082815260200191505060405180910390f35b341561054457600080fd5b61054c611105565b6040518082815260200191505060405180910390f35b341561056d57600080fd5b61057561110a565b604051808273ffffffffffffffffffffffffffffffffffffffff1673ffffffffffffffffffffffffffffffffffffffff16815260200191505060405180910390f35b34156105c257600080fd5b6105ca611130565b6040518082815260200191505060405180910390f35b34156105eb57600080fd5b6105f3611136565b005b341561060057600080fd5b61062c600480803573ffffffffffffffffffffffffffffffffffffffff169060200190919050506111cc565b005b341561063957600080fd5b6106416112c9565b6040518082815260200191505060405180910390f35b341561066257600080fd5b61066a6112cf565b6040518080602001828103825283818151815260200191508051906020019080838360005b838110156106ab5780820151818401525b60208101905061068f565b50505050905090810190601f1680156106d85780820380516001836020036101000a031916815260200191505b509250505060405180910390f35b34156106f157600080fd5b610726600480803573ffffffffffffffffffffffffffffffffffffffff1690602001909190803590602001909190505061136d565b604051808215151515815260200191505060405180910390f35b341561074b57600080fd5b610753611547565b6040518082815260200191505060405180910390f35b341561077457600080fd5b6107a0600480803573ffffffffffffffffffffffffffffffffffffffff1690602001909190505061154d565b6040518082815260200191505060405180910390f35b34156107c157600080fd5b6107c9611597565b6040518082815260200191505060405180910390f35b34156107ea57600080fd5b610809600480803590602001909190803590602001909190505061159d565b005b341561081657600080fd5b61081e61165e565b005b341561082b57600080fd5b6108336118c7565b6040518080602001828103825283818151815260200191508051906020019080838360005b838110156108745780820151818401525b602081019050610858565b50505050905090810190601f1680156108a15780820380516001836020036101000a031916815260200191505b509250505060405180910390f35b34156108ba57600080fd5b6108d06004808035906020019091905050611900565b005b34156108dd57600080fd5b610909600480803573ffffffffffffffffffffffffffffffffffffffff169060200190919050506119cb565b005b341561091657600080fd5b61091e611aa7565b604051808273ffffffffffffffffffffffffffffffffffffffff1673ffffffffffffffffffffffffffffffffffffffff16815260200191505060405180910390f35b341561096b57600080fd5b6109a0600480803573ffffffffffffffffffffffffffffffffffffffff16906020019091908035906020019091905050611acd565b604051808215151515815260200191505060405180910390f35b34156109c557600080fd5b6109db6004808035906020019091905050611c3b565b005b34156109e857600080fd5b6109f0611d06565b6040518082815260200191505060405180910390f35b3415610a1157600080fd5b610a276004808035906020019091905050611d11565b005b3415610a3457600080fd5b610a3c611d96565b6040518082815260200191505060405180910390f35b3415610a5d57600080fd5b610aa8600480803573ffffffffffffffffffffffffffffffffffffffff1690602001909190803573ffffffffffffffffffffffffffffffffffffffff16906020019091905050611d9c565b6040518082815260200191505060405180910390f35b3415610ac957600080fd5b610ad1611e24565b005b3415610ade57600080fd5b610ae6611f22565b6040518082815260200191505060405180910390f35b60008082840290506000841480610b1d5750828482811515610b1a57fe5b04145b1515610b2557fe5b8091505b5092915050565b6000808284019050838110158015610b485750828110155b1515610b5057fe5b8091505b5092915050565b6040805190810160405280600381526020017f475741000000000000000000000000000000000000000000000000000000000081525081565b600081600260003373ffffffffffffffffffffffffffffffffffffffff1673ffffffffffffffffffffffffffffffffffffffff16815260200190815260200160002060008573ffffffffffffffffffffffffffffffffffffffff1673ffffffffffffffffffffffffffffffffffffffff168152602001908152602001600020819055508273ffffffffffffffffffffffffffffffffffffffff163373ffffffffffffffffffffffffffffffffffffffff167f8c5be1e5ebec7d5bd14f71427d1e84f3dd0314c0f7b2291e5b200ac8c7c3b925846040518082815260200191505060405180910390a3600190505b92915050565b6000600460009054906101000a900473ffffffffffffffffffffffffffffffffffffffff1673ffffffffffffffffffffffffffffffffffffffff163373ffffffffffffffffffffffffffffffffffffffff16141515610ce557600080fd5b6000821415610cf357600080fd5b600073ffffffffffffffffffffffffffffffffffffffff168373ffffffffffffffffffffffffffffffffffffffff161415610d2d57600080fd5b610d41610d3983611f28565b600c54610afc565b905060085460095482011115610d5657600080fd5b610d6260095482610b30565b60098190555080600160008573ffffffffffffffffffffffffffffffffffffffff1673ffffffffffffffffffffffffffffffffffffffff168152602001908152602001600020600082825401925050819055508273ffffffffffffffffffffffffffffffffffffffff167f1aee3ddc9eba03c98b273cd914e999b78162e1ddd1c022045394f635a469e105826040518082815260200191505060405180910390a25b5b505050565b600560149054906101000a900460ff1681565b60005481565b6000806000341415610e3457600080fd5b610e4034600c54610afc565b905060085460095482011115610e5557600080fd5b600191505b5090565b600081600160008673ffffffffffffffffffffffffffffffffffffffff1673ffffffffffffffffffffffffffffffffffffffff1681526020019081526020016000205410158015610f2b575081600260008673ffffffffffffffffffffffffffffffffffffffff1673ffffffffffffffffffffffffffffffffffffffff16815260200190815260200160002060003373ffffffffffffffffffffffffffffffffffffffff1673ffffffffffffffffffffffffffffffffffffffff1681526020019081526020016000205410155b8015610f375750600082115b156110ce5781600160008573ffffffffffffffffffffffffffffffffffffffff1673ffffffffffffffffffffffffffffffffffffffff1681526020019081526020016000206000828254019250508190555081600160008673ffffffffffffffffffffffffffffffffffffffff1673ffffffffffffffffffffffffffffffffffffffff1681526020019081526020016000206000828254039250508190555081600260008673ffffffffffffffffffffffffffffffffffffffff1673ffffffffffffffffffffffffffffffffffffffff16815260200190815260200160002060003373ffffffffffffffffffffffffffffffffffffffff1673ffffffffffffffffffffffffffffffffffffffff168152602001908152602001600020600082825403925050819055508273ffffffffffffffffffffffffffffffffffffffff168473ffffffffffffffffffffffffffffffffffffffff167fddf252ad1be2c89b69c2b068fc378daa952ba7f163c4a11628f55a4df523b3ef846040518082815260200191505060405180910390a3600190506110d8565b600090506110d8565b5b9392505050565b60095481565b60003073ffffffffffffffffffffffffffffffffffffffff163190505b90565b601281565b600560009054906101000a900473ffffffffffffffffffffffffffffffffffffffff1681565b600c5481565b600460009054906101000a900473ffffffffffffffffffffffffffffffffffffffff1673ffffffffffffffffffffffffffffffffffffffff163373ffffffffffffffffffffffffffffffffffffffff1614151561119257600080fd5b600560149054906101000a900460ff1615156111ad57600080fd5b6000600560146101000a81548160ff0219169083151502179055505b5b565b600460009054906101000a900473ffffffffffffffffffffffffffffffffffffffff1673ffffffffffffffffffffffffffffffffffffffff163373ffffffffffffffffffffffffffffffffffffffff1614151561122857600080fd5b600560009054906101000a900473ffffffffffffffffffffffffffffffffffffffff1673ffffffffffffffffffffffffffffffffffffffff168173ffffffffffffffffffffffffffffffffffffffff16141561128357600080fd5b80600560006101000a81548173ffffffffffffffffffffffffffffffffffffffff021916908373ffffffffffffffffffffffffffffffffffffffff1602179055505b5b50565b600a5481565b60038054600181600116156101000203166002900480601f0160208091040260200160405190810160405280929190818152602001828054600181600116156101000203166002900480156113655780601f1061133a57610100808354040283529160200191611365565b820191906000526020600020905b81548152906001019060200180831161134857829003601f168201915b505050505081565b600081600160008573ffffffffffffffffffffffffffffffffffffffff1673ffffffffffffffffffffffffffffffffffffffff168152602001908152602001600020541015801561143a575081600260008573ffffffffffffffffffffffffffffffffffffffff1673ffffffffffffffffffffffffffffffffffffffff16815260200190815260200160002060003373ffffffffffffffffffffffffffffffffffffffff1673ffffffffffffffffffffffffffffffffffffffff1681526020019081526020016000205410155b80156114465750600082115b1561153b5781600160008573ffffffffffffffffffffffffffffffffffffffff1673ffffffffffffffffffffffffffffffffffffffff1681526020019081526020016000206000828254039250508190555081600260008573ffffffffffffffffffffffffffffffffffffffff1673ffffffffffffffffffffffffffffffffffffffff16815260200190815260200160002060003373ffffffffffffffffffffffffffffffffffffffff1673ffffffffffffffffffffffffffffffffffffffff1681526020019081526020016000206000828254039250508190555081600a6000828254019250508190555060019050611541565b600080fd5b5b92915050565b600b5481565b6000600160008373ffffffffffffffffffffffffffffffffffffffff1673ffffffffffffffffffffffffffffffffffffffff1681526020019081526020016000205490505b919050565b60085481565b600460009054906101000a900473ffffffffffffffffffffffffffffffffffffffff1673ffffffffffffffffffffffffffffffffffffffff163373ffffffffffffffffffffffffffffffffffffffff161415156115f957600080fd5b600560149054906101000a900460ff161561161357600080fd5b808210151561162157600080fd5b814310151561162f57600080fd5b81600681905550806007819055506001600560146101000a81548160ff0219169083151502179055505b5b5050565b600080600560149054906101000a900460ff161561167b57600080fd5b600073ffffffffffffffffffffffffffffffffffffffff16600560009054906101000a900473ffffffffffffffffffffffffffffffffffffffff1673ffffffffffffffffffffffffffffffffffffffff1614156116d757600080fd5b600160003373ffffffffffffffffffffffffffffffffffffffff1673ffffffffffffffffffffffffffffffffffffffff168152602001908152602001600020549150600082141561172757600080fd5b6000600160003373ffffffffffffffffffffffffffffffffffffffff1673ffffffffffffffffffffffffffffffffffffffff16815260200190815260200160002081905550611778600b5483610b30565b600b81905550600560009054906101000a900473ffffffffffffffffffffffffffffffffffffffff1690508073ffffffffffffffffffffffffffffffffffffffff1663ad68ebf733846000604051602001526040518363ffffffff167c0100000000000000000000000000000000000000000000000000000000028152600401808373ffffffffffffffffffffffffffffffffffffffff1673ffffffffffffffffffffffffffffffffffffffff16815260200182815260200192505050602060405180830381600087803b151561184e57600080fd5b6102c65a03f1151561185f57600080fd5b50505060405180519050151561187457600080fd5b3373ffffffffffffffffffffffffffffffffffffffff167fa59785389b00cbd19745afbe8d59b28e3161395c6b1e3525861a2b0dede0b90d836040518082815260200191505060405180910390a25b5050565b6040805190810160405280600381526020017f475741000000000000000000000000000000000000000000000000000000000081525081565b6000600460009054906101000a900473ffffffffffffffffffffffffffffffffffffffff1673ffffffffffffffffffffffffffffffffffffffff163373ffffffffffffffffffffffffffffffffffffffff1614151561195e57600080fd5b61196782611f28565b90506008546009548201111561197c57600080fd5b61198860085482611f39565b6008819055507f9ecdebfa921d6ab8cecf7259ef30327664ad0d45d32fa3641089b00b533f2eee816040518082815260200191505060405180910390a15b5b5050565b600460009054906101000a900473ffffffffffffffffffffffffffffffffffffffff1673ffffffffffffffffffffffffffffffffffffffff163373ffffffffffffffffffffffffffffffffffffffff16141515611a2757600080fd5b600073ffffffffffffffffffffffffffffffffffffffff168173ffffffffffffffffffffffffffffffffffffffff161415611a6157600080fd5b80600460006101000a81548173ffffffffffffffffffffffffffffffffffffffff021916908373ffffffffffffffffffffffffffffffffffffffff1602179055505b5b50565b600460009054906101000a900473ffffffffffffffffffffffffffffffffffffffff1681565b600081600160003373ffffffffffffffffffffffffffffffffffffffff1673ffffffffffffffffffffffffffffffffffffffff1681526020019081526020016000205410158015611b1e5750600082115b15611c2b5781600160003373ffffffffffffffffffffffffffffffffffffffff1673ffffffffffffffffffffffffffffffffffffffff1681526020019081526020016000206000828254039250508190555081600160008573ffffffffffffffffffffffffffffffffffffffff1673ffffffffffffffffffffffffffffffffffffffff168152602001908152602001600020600082825401925050819055508273ffffffffffffffffffffffffffffffffffffffff163373ffffffffffffffffffffffffffffffffffffffff167fddf252ad1be2c89b69c2b068fc378daa952ba7f163c4a11628f55a4df523b3ef846040518082815260200191505060405180910390a360019050611c35565b60009050611c35565b5b92915050565b6000600460009054906101000a900473ffffffffffffffffffffffffffffffffffffffff1673ffffffffffffffffffffffffffffffffffffffff163373ffffffffffffffffffffffffffffffffffffffff16141515611c9957600080fd5b611ca282611f28565b905060005460085482011115611cb757600080fd5b611cc360085482610b30565b6008819055507ffaabf704b783af9e21c676de8e3e6e0c9c2260dce2ee299437ec9b70151ddaeb816040518082815260200191505060405180910390a15b5b5050565b6000600a5490505b90565b600460009054906101000a900473ffffffffffffffffffffffffffffffffffffffff1673ffffffffffffffffffffffffffffffffffffffff163373ffffffffffffffffffffffffffffffffffffffff16141515611d6d57600080fd5b6000811415611d7b57600080fd5b600c54811415611d8a57600080fd5b80600c819055505b5b50565b60065481565b6000600260008473ffffffffffffffffffffffffffffffffffffffff1673ffffffffffffffffffffffffffffffffffffffff16815260200190815260200160002060008373ffffffffffffffffffffffffffffffffffffffff1673ffffffffffffffffffffffffffffffffffffffff1681526020019081526020016000205490505b92915050565b600460009054906101000a900473ffffffffffffffffffffffffffffffffffffffff1673ffffffffffffffffffffffffffffffffffffffff163373ffffffffffffffffffffffffffffffffffffffff16141515611e8057600080fd5b60003073ffffffffffffffffffffffffffffffffffffffff16311415611ea557600080fd5b600460009054906101000a900473ffffffffffffffffffffffffffffffffffffffff1673ffffffffffffffffffffffffffffffffffffffff166108fc3073ffffffffffffffffffffffffffffffffffffffff16319081150290604051600060405180830381858888f193505050501515611f1e57600080fd5b5b5b565b60075481565b60006012600a0a820290505b919050565b600080828410151515611f4857fe5b82840390508091505b50929150505600a165627a7a72305820c4264961e3e4e6424f2d510fedee959a5f90b76431610aef324a5b7427e0f4a10029",
  "source": "pragma solidity ^0.4.12;\r\n \r\ncontract IMigrationContract {\r\n    function migrate(address addr, uint256 nas) returns (bool success);\r\n}\r\n \r\ncontract SafeMath {\r\n \r\n \r\n    function safeAdd(uint256 x, uint256 y) internal returns(uint256) {\r\n        uint256 z = x + y;\r\n        assert((z >= x) && (z >= y));\r\n        return z;\r\n    }\r\n \r\n    function safeSubtract(uint256 x, uint256 y) internal returns(uint256) {\r\n        assert(x >= y);\r\n        uint256 z = x - y;\r\n        return z;\r\n    }\r\n \r\n    function safeMult(uint256 x, uint256 y) internal returns(uint256) {\r\n        uint256 z = x * y;\r\n        assert((x == 0)||(z/x == y));\r\n        return z;\r\n    }\r\n \r\n}\r\n \r\ncontract Token {\r\n\t//总发行量\r\n    uint256 public totalSupply;\r\n    function balanceOf(address _owner) constant returns (uint256 balance);\r\n    function transfer(address _to, uint256 _value) returns (bool success);\r\n    function transferFrom(address _from, address _to, uint256 _value) returns (bool success);\r\n\t//授权\r\n    function approve(address _spender, uint256 _value) returns (bool success);\r\n\t//返回授权额度\r\n    function allowance(address _owner, address _spender) constant returns (uint256 remaining);\r\n    event Transfer(address indexed _from, address indexed _to, uint256 _value);\r\n    event Approval(address indexed _owner, address indexed _spender, uint256 _value);\r\n}\r\n \r\n \r\n/*  ERC 20 token */\r\ncontract StandardToken is Token {\r\n \r\n    function transfer(address _to, uint256 _value) returns (bool success) {\r\n        if (balances[msg.sender] >= _value && _value > 0) {\r\n            balances[msg.sender] -= _value;\r\n            balances[_to] += _value;\r\n            Transfer(msg.sender, _to, _value);\r\n            return true;\r\n        } else {\r\n            return false;\r\n        }\r\n    }\r\n \r\n    function transferFrom(address _from, address _to, uint256 _value) returns (bool success) {\r\n        if (balances[_from] >= _value && allowed[_from][msg.sender] >= _value && _value > 0) {\r\n            balances[_to] += _value;\r\n            balances[_from] -= _value;\r\n            allowed[_from][msg.sender] -= _value;\r\n            Transfer(_from, _to, _value);\r\n            return true;\r\n        } else {\r\n            return false;\r\n        }\r\n    }\r\n \r\n    function balanceOf(address _owner) constant returns (uint256 balance) {\r\n        return balances[_owner];\r\n    }\r\n \r\n    function approve(address _spender, uint256 _value) returns (bool success) {\r\n        allowed[msg.sender][_spender] = _value;\r\n        Approval(msg.sender, _spender, _value);\r\n        return true;\r\n    }\r\n \r\n    function allowance(address _owner, address _spender) constant returns (uint256 remaining) {\r\n        return allowed[_owner][_spender];\r\n    }\r\n \r\n    mapping (address => uint256) balances;\r\n    mapping (address => mapping (address => uint256)) allowed;\r\n}\r\n \r\ncontract GwaToken is StandardToken, SafeMath {\r\n \r\n    // metadata\r\n\t//名字\r\n    string  public constant name = \"GWA\";\r\n\t//代币符号\r\n    string  public constant symbol = \"GWA\";\r\n\t//代币最小单位，小数位数\r\n    uint256 public constant decimals = 18;\r\n    string  public version = \"1.0\";\r\n \r\n    // contracts\r\n    address public ethFundDeposit;          // ETH存放地址\r\n    address public newContractAddr;         // token更新地址\r\n \r\n    // crowdsale parameters\r\n    bool    public isFunding;                // 状态切换到true\r\n    uint256 public fundingStartBlock;\r\n    uint256 public fundingStopBlock;\r\n \r\n    uint256 public currentSupply;           // 正在售卖中的tokens数量\r\n    uint256 public tokenRaised = 0;         // 总的售卖数量token\r\n    uint256 public destroyNum = 0;         // 销毁数量\r\n    uint256 public tokenMigrated = 0;     // 总的已经交易的 token\r\n    uint256 public tokenExchangeRate = 1500;             // 1500 GWA 兑换 1 ETH\r\n \r\n    // events\r\n    event AllocateToken(address indexed _to, uint256 _value);   // 分配的私有交易token;\r\n    event IssueToken(address indexed _to, uint256 _value);      // 公开发行售卖的token;\r\n    event IncreaseSupply(uint256 _value);\r\n    event DecreaseSupply(uint256 _value);\r\n    event Migrate(address indexed _to, uint256 _value);\r\n \r\n    // 转换\r\n    function formatDecimals(uint256 _value) internal returns (uint256 ) {\r\n        return _value * 10 ** decimals;\r\n    }\r\n \r\n    // constructor\r\n    function GwaToken(\r\n        address _ethFundDeposit,\r\n        uint256 _currentSupply)\r\n    {\r\n        ethFundDeposit = _ethFundDeposit;\r\n \r\n        isFunding = false;                           //通过控制预CrowdS ale状态\r\n        fundingStartBlock = 0;\r\n        fundingStopBlock = 0;\r\n \r\n        currentSupply = formatDecimals(_currentSupply);\r\n        totalSupply = formatDecimals(100000000);\r\n        balances[msg.sender] = totalSupply;\r\n        if(currentSupply > totalSupply) throw;\r\n    }\r\n \r\n    modifier isOwner()  { require(msg.sender == ethFundDeposit); _; }\r\n \r\n    ///  设置token汇率\r\n    function setTokenExchangeRate(uint256 _tokenExchangeRate) isOwner external {\r\n        if (_tokenExchangeRate == 0) throw;\r\n        if (_tokenExchangeRate == tokenExchangeRate) throw;\r\n \r\n        tokenExchangeRate = _tokenExchangeRate;\r\n    }\r\n \r\n    /// @dev 超发token处理\r\n    function increaseSupply (uint256 _value) isOwner external {\r\n        uint256 value = formatDecimals(_value);\r\n        if (value + currentSupply > totalSupply) throw;\r\n        currentSupply = safeAdd(currentSupply, value);\r\n        IncreaseSupply(value);\r\n    }\r\n \r\n    /// @dev 被盗token处理\r\n    function decreaseSupply (uint256 _value) isOwner external {\r\n        uint256 value = formatDecimals(_value);\r\n        if (value + tokenRaised > currentSupply) throw;\r\n \r\n        currentSupply = safeSubtract(currentSupply, value);\r\n        DecreaseSupply(value);\r\n    }\r\n \r\n    ///  启动区块检测 异常的处理\r\n    function startFunding (uint256 _fundingStartBlock, uint256 _fundingStopBlock) isOwner external {\r\n        if (isFunding) throw;\r\n        if (_fundingStartBlock >= _fundingStopBlock) throw;\r\n        if (block.number >= _fundingStartBlock) throw;\r\n \r\n        fundingStartBlock = _fundingStartBlock;\r\n        fundingStopBlock = _fundingStopBlock;\r\n        isFunding = true;\r\n    }\r\n \r\n    ///  关闭区块异常处理\r\n    function stopFunding() isOwner external {\r\n        if (!isFunding) throw;\r\n        isFunding = false;\r\n    }\r\n \r\n    /// 开发了一个新的合同来接收token（或者更新token）\r\n    function setMigrateContract(address _newContractAddr) isOwner external {\r\n        if (_newContractAddr == newContractAddr) throw;\r\n        newContractAddr = _newContractAddr;\r\n    }\r\n \r\n    /// 设置新的所有者地址\r\n    function changeOwner(address _newFundDeposit) isOwner() external {\r\n        if (_newFundDeposit == address(0x0)) throw;\r\n        ethFundDeposit = _newFundDeposit;\r\n    }\r\n \r\n    ///转移token到新的合约\r\n    function migrate() external {\r\n        if(isFunding) throw;\r\n        if(newContractAddr == address(0x0)) throw;\r\n \r\n        uint256 tokens = balances[msg.sender];\r\n        if (tokens == 0) throw;\r\n \r\n        balances[msg.sender] = 0;\r\n        tokenMigrated = safeAdd(tokenMigrated, tokens);\r\n \r\n        IMigrationContract newContract = IMigrationContract(newContractAddr);\r\n        if (!newContract.migrate(msg.sender, tokens)) throw;\r\n \r\n        Migrate(msg.sender, tokens);               // log it\r\n    }\r\n \r\n    /// 转账ETH 到GWA团队\r\n    function transferETH() isOwner external {\r\n        if (this.balance == 0) throw;\r\n        if (!ethFundDeposit.send(this.balance)) throw;\r\n    }\r\n \r\n    ///  将GWA token分配到预处理地址。\r\n    function allocateToken (address _addr, uint256 _eth) isOwner external {\r\n        if (_eth == 0) throw;\r\n        if (_addr == address(0x0)) throw;\r\n \r\n        uint256 tokens = safeMult(formatDecimals(_eth), tokenExchangeRate);\r\n        if (tokens + tokenRaised > currentSupply) throw;\r\n \r\n        tokenRaised = safeAdd(tokenRaised, tokens);\r\n        balances[_addr] += tokens;\r\n \r\n        AllocateToken(_addr, tokens);  // 记录token日志\r\n    }\r\n \r\n    /// 购买token\r\n    function () payable {\r\n        if (!isFunding) throw;\r\n        if (msg.value == 0) throw;\r\n \r\n        if (block.number < fundingStartBlock) throw;\r\n        if (block.number > fundingStopBlock) throw;\r\n \r\n        uint256 tokens = safeMult(msg.value, tokenExchangeRate);\r\n        if (tokens + tokenRaised > currentSupply) throw;\r\n \r\n        tokenRaised = safeAdd(tokenRaised, tokens);\r\n        balances[msg.sender] += tokens;\r\n \r\n        IssueToken(msg.sender, tokens);  //记录日志\r\n    }\r\n    \r\n    function pay() payable returns(bool success){\r\n        if (msg.value == 0) throw;\r\n        uint256 tokens = safeMult(msg.value, tokenExchangeRate);\r\n        if (tokens + tokenRaised > currentSupply) throw;\r\n        return true;\r\n    }\r\n    \r\n    function thisBalance() public returns(uint){\r\n        return address(this).balance;\r\n    }\r\n    \r\n    function destroyGwa(address _from, uint256 _value) returns (bool success) {\r\n        if (balances[_from] >= _value && allowed[_from][msg.sender] >= _value && _value > 0) {\r\n            balances[_from] -= _value;\r\n            allowed[_from][msg.sender] -= _value;\r\n            destroyNum += _value;\r\n            return true;\r\n        } else {\r\n            throw;\r\n        }\r\n    }\r\n    \r\n    function getDestroyNum() public returns(uint){\r\n        return destroyNum;\r\n    }\r\n    \r\n}",
  "sourcePath": "D:\\360安全浏览器下载\\fabi\\contracts\\GwaToken.sol",
  "compiler": {
    "name": "solc",
    "version": "0.4.12+commit.194ff033.Emscripten.clang"
  },
  "schemaVersion": "3.2.0",
  "updatedAt": "2020-07-09T05:24:04.996Z",
  "devdoc": {
    "methods": {
      "decreaseSupply(uint256)": {
        "details": "被盗token处理\r"
      },
      "increaseSupply(uint256)": {
        "details": "超发token处理\r"
      }
    }
  },
  "userdoc": {
    "methods": {
      "allocateToken(address,uint256)": {
        "notice": "将GWA token分配到预处理地址。\r"
      },
      "changeOwner(address)": {
        "notice": "设置新的所有者地址\r"
      },
      "migrate()": {
        "notice": "转移token到新的合约\r"
      },
      "setMigrateContract(address)": {
        "notice": "开发了一个新的合同来接收token（或者更新token）\r"
      },
      "setTokenExchangeRate(uint256)": {
        "notice": "设置token汇率\r"
      },
      "startFunding(uint256,uint256)": {
        "notice": "启动区块检测 异常的处理\r"
      },
      "stopFunding()": {
        "notice": "关闭区块异常处理\r"
      },
      "transferETH()": {
        "notice": "转账ETH 到GWA团队\r"
      }
    }
  }
}