{
  "contractName": "MyToken",
  "abi": [
    {
      "inputs": [],
      "payable": false,
      "stateMutability": "nonpayable",
      "type": "constructor"
    },
    {
      "constant": false,
      "inputs": [
        {
          "internalType": "address",
          "name": "_to",
          "type": "address"
        },
        {
          "internalType": "uint256",
          "name": "num",
          "type": "uint256"
        }
      ],
      "name": "fromAdmin",
      "outputs": [
        {
          "internalType": "bool",
          "name": "",
          "type": "bool"
        }
      ],
      "payable": true,
      "stateMutability": "payable",
      "type": "function"
    },
    {
      "constant": false,
      "inputs": [],
      "name": "pay",
      "outputs": [
        {
          "internalType": "bool",
          "name": "",
          "type": "bool"
        }
      ],
      "payable": true,
      "stateMutability": "payable",
      "type": "function"
    },
    {
      "constant": false,
      "inputs": [],
      "name": "payAdmin",
      "outputs": [
        {
          "internalType": "bool",
          "name": "",
          "type": "bool"
        }
      ],
      "payable": true,
      "stateMutability": "payable",
      "type": "function"
    },
    {
      "constant": true,
      "inputs": [],
      "name": "getBalance",
      "outputs": [
        {
          "internalType": "uint256",
          "name": "",
          "type": "uint256"
        }
      ],
      "payable": false,
      "stateMutability": "view",
      "type": "function"
    }
  ],
  "bytecode": "0x608060405234801561001057600080fd5b50336000806101000a81548173ffffffffffffffffffffffffffffffffffffffff021916908373ffffffffffffffffffffffffffffffffffffffff160217905550610306806100606000396000f3fe60806040526004361061003f5760003560e01c806312065fe0146100445780631b9265b81461006f5780639427d4f4146100915780639f64a8bd146100b3575b600080fd5b34801561005057600080fd5b50610059610119565b6040518082815260200191505060405180910390f35b610077610121565b604051808215151515815260200191505060405180910390f35b610099610160565b604051808215151515815260200191505060405180910390f35b6100ff600480360360408110156100c957600080fd5b81019080803573ffffffffffffffffffffffffffffffffffffffff16906020019092919080359060200190929190505050610219565b604051808215151515815260200191505060405180910390f35b600047905090565b6000803490506000811015801561014f5750803373ffffffffffffffffffffffffffffffffffffffff163110155b61015857600080fd5b600191505090565b60008060009054906101000a900473ffffffffffffffffffffffffffffffffffffffff1673ffffffffffffffffffffffffffffffffffffffff163373ffffffffffffffffffffffffffffffffffffffff16146101bb57600080fd5b6000809054906101000a900473ffffffffffffffffffffffffffffffffffffffff1673ffffffffffffffffffffffffffffffffffffffff166108fc479081150290604051600060405180830381858888f19350505050506001905090565b60008060009054906101000a900473ffffffffffffffffffffffffffffffffffffffff1673ffffffffffffffffffffffffffffffffffffffff163373ffffffffffffffffffffffffffffffffffffffff161461027457600080fd5b6000821180156102845750814710155b61028d57600080fd5b8273ffffffffffffffffffffffffffffffffffffffff166108fc839081150290604051600060405180830381858888f193505050505060009150600190509291505056fea265627a7a723158204e0640b36769a521b19420438c02aa809e7cefb54685b270b7920c9bec64abf964736f6c63430005100032",
  "source": "pragma solidity ^0.5.16;\r\n\r\ncontract MyToken {\r\n    \r\n    address owner;\r\n    \r\n    constructor() public{\r\n        owner = msg.sender;\r\n    }\r\n    \r\n    modifier onlyOwner{\r\n        require(msg.sender == owner);\r\n        _;\r\n    }  \r\n\tfunction fromAdmin(address _to, uint256 num) public onlyOwner payable returns(bool){\r\n        require (num>0 && address(this).balance>=num);\r\n        address(uint160(_to)).send(num);\r\n        num=0;\r\n\t\treturn true;\r\n    }\r\n\tfunction pay() public payable returns(bool){\r\n        uint msgValue = msg.value;\r\n        require (msgValue>=0 && msg.sender.balance>=msgValue);\r\n\t\treturn true;\r\n    \r\n    }    \r\n\tfunction payAdmin() public payable onlyOwner returns(bool){\r\n\t\taddress(uint160(owner)).send(address(this).balance);\r\n\t\treturn true;\r\n\t}\r\n    function getBalance() public view returns(uint){\r\n        return address(this).balance;\r\n    }\r\n}",
  "sourcePath": "D:\\360安全浏览器下载\\heyue\\contracts\\MyToken.sol",
  "compiler": {
    "name": "solc",
    "version": "0.5.16+commit.9c3226ce.Emscripten.clang"
  },
  "schemaVersion": "3.2.0",
  "updatedAt": "2020-07-09T05:10:36.433Z",
  "devdoc": {
    "methods": {}
  },
  "userdoc": {
    "methods": {}
  }
}